{
  "contractName": "CarRegistration",
  "abi": [
    {
      "constant": true,
      "inputs": [],
      "name": "registrar",
      "outputs": [
        {
          "name": "",
          "type": "address"
        }
      ],
      "payable": false,
      "stateMutability": "view",
      "type": "function"
    },
    {
      "inputs": [],
      "payable": false,
      "stateMutability": "nonpayable",
      "type": "constructor"
    },
    {
      "anonymous": false,
      "inputs": [
        {
          "indexed": false,
          "name": "owner",
          "type": "address"
        },
        {
          "indexed": false,
          "name": "plate",
          "type": "string"
        },
        {
          "indexed": false,
          "name": "brand",
          "type": "string"
        },
        {
          "indexed": false,
          "name": "model",
          "type": "string"
        },
        {
          "indexed": false,
          "name": "ownerCredentials",
          "type": "string"
        }
      ],
      "name": "CarRegistered",
      "type": "event"
    },
    {
      "constant": false,
      "inputs": [
        {
          "name": "owner",
          "type": "address"
        }
      ],
      "name": "registerCar",
      "outputs": [],
      "payable": false,
      "stateMutability": "nonpayable",
      "type": "function"
    },
    {
      "constant": false,
      "inputs": [
        {
          "name": "plate",
          "type": "string"
        },
        {
          "name": "brand",
          "type": "string"
        },
        {
          "name": "model",
          "type": "string"
        },
        {
          "name": "ownerCredentials",
          "type": "string"
        },
        {
          "name": "horsePower",
          "type": "uint256"
        }
      ],
      "name": "requestRegistration",
      "outputs": [],
      "payable": false,
      "stateMutability": "nonpayable",
      "type": "function"
    },
    {
      "constant": true,
      "inputs": [
        {
          "name": "owner",
          "type": "address"
        },
        {
          "name": "index",
          "type": "uint256"
        }
      ],
      "name": "getCarByIndex",
      "outputs": [
        {
          "name": "plate",
          "type": "string"
        },
        {
          "name": "brand",
          "type": "string"
        },
        {
          "name": "model",
          "type": "string"
        },
        {
          "name": "ownerCredentials",
          "type": "string"
        },
        {
          "name": "horsePower",
          "type": "uint256"
        }
      ],
      "payable": false,
      "stateMutability": "view",
      "type": "function"
    }
  ],
  "bytecode": "0x608060405234801561001057600080fd5b5033600560006101000a81548173ffffffffffffffffffffffffffffffffffffffff021916908373ffffffffffffffffffffffffffffffffffffffff1602179055506111f9806100616000396000f300608060405260043610610062576000357c0100000000000000000000000000000000000000000000000000000000900463ffffffff168063096cb7e7146100675780632b20e397146101ac5780633134f7c91461020357806358062e2014610246575b600080fd5b34801561007357600080fd5b506101aa600480360381019080803590602001908201803590602001908080601f0160208091040260200160405190810160405280939291908181526020018383808284378201915050505050509192919290803590602001908201803590602001908080601f0160208091040260200160405190810160405280939291908181526020018383808284378201915050505050509192919290803590602001908201803590602001908080601f0160208091040260200160405190810160405280939291908181526020018383808284378201915050505050509192919290803590602001908201803590602001908080601f016020809104026020016040519081016040528093929190818152602001838380828437820191505050505050919291929080359060200190929190505050610457565b005b3480156101b857600080fd5b506101c16104fd565b604051808273ffffffffffffffffffffffffffffffffffffffff1673ffffffffffffffffffffffffffffffffffffffff16815260200191505060405180910390f35b34801561020f57600080fd5b50610244600480360381019080803573ffffffffffffffffffffffffffffffffffffffff169060200190929190505050610523565b005b34801561025257600080fd5b50610291600480360381019080803573ffffffffffffffffffffffffffffffffffffffff16906020019092919080359060200190929190505050610c4a565b604051808060200180602001806020018060200186815260200185810385528a818151815260200191508051906020019080838360005b838110156102e35780820151818401526020810190506102c8565b50505050905090810190601f1680156103105780820380516001836020036101000a031916815260200191505b50858103845289818151815260200191508051906020019080838360005b8381101561034957808201518184015260208101905061032e565b50505050905090810190601f1680156103765780820380516001836020036101000a031916815260200191505b50858103835288818151815260200191508051906020019080838360005b838110156103af578082015181840152602081019050610394565b50505050905090810190601f1680156103dc5780820380516001836020036101000a031916815260200191505b50858103825287818151815260200191508051906020019080838360005b838110156104155780820151818401526020810190506103fa565b50505050905090810190601f1680156104425780820380516001836020036101000a031916815260200191505b50995050505050505050505060405180910390f35b846000908051906020019061046d9291906110a8565b5060806040519081016040528085815260200184815260200183815260200182815250600160008201518160000190805190602001906104ae929190611128565b5060208201518160010190805190602001906104cb929190611128565b5060408201518160020190805190602001906104e8929190611128565b50606082015181600301559050505050505050565b600560009054906101000a900473ffffffffffffffffffffffffffffffffffffffff1681565b600560009054906101000a900473ffffffffffffffffffffffffffffffffffffffff1673ffffffffffffffffffffffffffffffffffffffff163373ffffffffffffffffffffffffffffffffffffffff1614151561060e576040517f08c379a00000000000000000000000000000000000000000000000000000000081526004018080602001828103825260248152602001807f4f6e6c79207265676973747261722063616e207265676973746572207665686981526020017f636c65730000000000000000000000000000000000000000000000000000000081525060400191505060405180910390fd5b600660008273ffffffffffffffffffffffffffffffffffffffff1673ffffffffffffffffffffffffffffffffffffffff168152602001908152602001600020604080519081016040528060008054600181600116156101000203166002900480601f0160208091040260200160405190810160405280929190818152602001828054600181600116156101000203166002900480156106ee5780601f106106c3576101008083540402835291602001916106ee565b820191906000526020600020905b8154815290600101906020018083116106d157829003601f168201915b50505050508152602001600160806040519081016040529081600082018054600181600116156101000203166002900480601f01602080910402602001604051908101604052809291908181526020018280546001816001161561010002031660029004801561079f5780601f106107745761010080835404028352916020019161079f565b820191906000526020600020905b81548152906001019060200180831161078257829003601f168201915b50505050508152602001600182018054600181600116156101000203166002900480601f0160208091040260200160405190810160405280929190818152602001828054600181600116156101000203166002900480156108415780601f1061081657610100808354040283529160200191610841565b820191906000526020600020905b81548152906001019060200180831161082457829003601f168201915b50505050508152602001600282018054600181600116156101000203166002900480601f0160208091040260200160405190810160405280929190818152602001828054600181600116156101000203166002900480156108e35780601f106108b8576101008083540402835291602001916108e3565b820191906000526020600020905b8154815290600101906020018083116108c657829003601f168201915b50505050508152602001600382015481525050815250908060018154018082558091505090600182039060005260206000209060050201600090919290919091506000820151816000019080519060200190610940929190611128565b506020820151816001016000820151816000019080519060200190610966929190611128565b506020820151816001019080519060200190610983929190611128565b5060408201518160020190805190602001906109a0929190611128565b506060820151816003015550505050507f928ac61ca1afbf5b7ac07d35f3f013538e5a70f17649f1d6038b4d09f54e188c8160006001600001600180016001600201604051808673ffffffffffffffffffffffffffffffffffffffff1673ffffffffffffffffffffffffffffffffffffffff16815260200180602001806020018060200180602001858103855289818154600181600116156101000203166002900481526020019150805460018160011615610100020316600290048015610aa95780601f10610a7e57610100808354040283529160200191610aa9565b820191906000526020600020905b815481529060010190602001808311610a8c57829003601f168201915b5050858103845288818154600181600116156101000203166002900481526020019150805460018160011615610100020316600290048015610b2c5780601f10610b0157610100808354040283529160200191610b2c565b820191906000526020600020905b815481529060010190602001808311610b0f57829003601f168201915b5050858103835287818154600181600116156101000203166002900481526020019150805460018160011615610100020316600290048015610baf5780601f10610b8457610100808354040283529160200191610baf565b820191906000526020600020905b815481529060010190602001808311610b9257829003601f168201915b5050858103825286818154600181600116156101000203166002900481526020019150805460018160011615610100020316600290048015610c325780601f10610c0757610100808354040283529160200191610c32565b820191906000526020600020905b815481529060010190602001808311610c1557829003601f168201915b5050995050505050505050505060405180910390a150565b6060806060806000600660008873ffffffffffffffffffffffffffffffffffffffff1673ffffffffffffffffffffffffffffffffffffffff16815260200190815260200160002086815481101515610c9e57fe5b90600052602060002090600502016000018054600181600116156101000203166002900480601f016020809104026020016040519081016040528092919081815260200182805460018160011615610100020316600290048015610d435780601f10610d1857610100808354040283529160200191610d43565b820191906000526020600020905b815481529060010190602001808311610d2657829003601f168201915b50505050509450600660008873ffffffffffffffffffffffffffffffffffffffff1673ffffffffffffffffffffffffffffffffffffffff16815260200190815260200160002086815481101515610d9657fe5b90600052602060002090600502016001016000018054600181600116156101000203166002900480601f016020809104026020016040519081016040528092919081815260200182805460018160011615610100020316600290048015610e3e5780601f10610e1357610100808354040283529160200191610e3e565b820191906000526020600020905b815481529060010190602001808311610e2157829003601f168201915b50505050509350600660008873ffffffffffffffffffffffffffffffffffffffff1673ffffffffffffffffffffffffffffffffffffffff16815260200190815260200160002086815481101515610e9157fe5b90600052602060002090600502016001016001018054600181600116156101000203166002900480601f016020809104026020016040519081016040528092919081815260200182805460018160011615610100020316600290048015610f395780601f10610f0e57610100808354040283529160200191610f39565b820191906000526020600020905b815481529060010190602001808311610f1c57829003601f168201915b50505050509250600660008873ffffffffffffffffffffffffffffffffffffffff1673ffffffffffffffffffffffffffffffffffffffff16815260200190815260200160002086815481101515610f8c57fe5b90600052602060002090600502016001016002018054600181600116156101000203166002900480601f0160208091040260200160405190810160405280929190818152602001828054600181600116156101000203166002900480156110345780601f1061100957610100808354040283529160200191611034565b820191906000526020600020905b81548152906001019060200180831161101757829003601f168201915b50505050509150600660008873ffffffffffffffffffffffffffffffffffffffff1673ffffffffffffffffffffffffffffffffffffffff1681526020019081526020016000208681548110151561108757fe5b90600052602060002090600502016001016003015490509295509295909350565b828054600181600116156101000203166002900490600052602060002090601f016020900481019282601f106110e957805160ff1916838001178555611117565b82800160010185558215611117579182015b828111156111165782518255916020019190600101906110fb565b5b50905061112491906111a8565b5090565b828054600181600116156101000203166002900490600052602060002090601f016020900481019282601f1061116957805160ff1916838001178555611197565b82800160010185558215611197579182015b8281111561119657825182559160200191906001019061117b565b5b5090506111a491906111a8565b5090565b6111ca91905b808211156111c65760008160009055506001016111ae565b5090565b905600a165627a7a72305820a7b86fb2ade2681be166f3c44689dde82b70cf1dcd7f197867983936f5558dab0029",
  "source": "pragma solidity ^0.4.22;\n\n/// @title API-controlled contract to register a car\ncontract CarRegistration {\n\n  struct Car {\n    string plate;\n    CarDescription description;\n  }\n\n  struct CarDescription {\n    string brand;\n    string model;\n    string ownerCredentials;\n    uint horsePower;\n  }\n\n  string private _requestedPlate;\n  CarDescription private _requestedDescription;\n\n  event CarRegistered(address owner, string plate, string brand, string model, string ownerCredentials);\n\n  // address of the person that allows registration\n  address public registrar;\n\n  // all registered cars of a person\n  mapping(address=>Car[]) private _registeredCars;\n\n  constructor() public {\n    registrar = msg.sender;\n  }\n\n  function registerCar(address owner) public {\n    require(msg.sender == registrar, \"Only registrar can register vehicles\");\n    _registeredCars[owner].push(Car({\n      plate: _requestedPlate,\n      description: _requestedDescription\n    }));\n    emit CarRegistered(\n      owner, \n      _requestedPlate, \n      _requestedDescription.brand, \n      _requestedDescription.model, \n      _requestedDescription.ownerCredentials\n    );\n  }\n\n  function requestRegistration(\n    string plate, \n    string brand, \n    string model, \n    string ownerCredentials, \n    uint horsePower) public\n    {\n    _requestedPlate = plate;\n    _requestedDescription = CarDescription({\n      brand: brand,\n      model: model,\n      ownerCredentials: ownerCredentials,\n      horsePower: horsePower\n    });\n  }\n\n  function getCarByIndex(address owner, uint index) view public returns (\n    string plate,\n    string brand,\n    string model,\n    string ownerCredentials,\n    uint horsePower\n  ) {\n    plate = _registeredCars[owner][index].plate;\n    brand = _registeredCars[owner][index].description.brand;\n    model = _registeredCars[owner][index].description.model;\n    ownerCredentials = _registeredCars[owner][index].description.ownerCredentials;\n    horsePower = _registeredCars[owner][index].description.horsePower;\n  }\n}",
  "sourcePath": "/home/miron/testJob/ethereum/contracts/CarRegistration.sol",
  "compiler": {
    "name": "solc",
    "version": "0.4.24+commit.e67f0147.Emscripten.clang"
  },
  "schemaVersion": "2.0.1",
  "updatedAt": "2018-10-31T17:47:32.555Z"
}