{
  "contractName": "CarRegistration",
  "abi": [
    {
      "constant": true,
      "inputs": [],
      "name": "registrar",
      "outputs": [
        {
          "name": "",
          "type": "address"
        }
      ],
      "payable": false,
      "stateMutability": "view",
      "type": "function"
    },
    {
      "inputs": [],
      "payable": false,
      "stateMutability": "nonpayable",
      "type": "constructor"
    },
    {
      "anonymous": false,
      "inputs": [
        {
          "indexed": false,
          "name": "owner",
          "type": "address"
        },
        {
          "indexed": false,
          "name": "plate",
          "type": "string"
        },
        {
          "indexed": false,
          "name": "brand",
          "type": "string"
        },
        {
          "indexed": false,
          "name": "model",
          "type": "string"
        },
        {
          "indexed": false,
          "name": "ownerCredentials",
          "type": "string"
        }
      ],
      "name": "CarRegistered",
      "type": "event"
    },
    {
      "constant": false,
      "inputs": [
        {
          "name": "owner",
          "type": "address"
        }
      ],
      "name": "registerCar",
      "outputs": [],
      "payable": false,
      "stateMutability": "nonpayable",
      "type": "function"
    },
    {
      "constant": false,
      "inputs": [
        {
          "name": "plate",
          "type": "string"
        },
        {
          "name": "brand",
          "type": "string"
        },
        {
          "name": "model",
          "type": "string"
        },
        {
          "name": "ownerCredentials",
          "type": "string"
        },
        {
          "name": "horsePower",
          "type": "uint256"
        }
      ],
      "name": "requestRegistration",
      "outputs": [],
      "payable": false,
      "stateMutability": "nonpayable",
      "type": "function"
    }
  ],
  "bytecode": "0x608060405234801561001057600080fd5b5033600560006101000a81548173ffffffffffffffffffffffffffffffffffffffff021916908373ffffffffffffffffffffffffffffffffffffffff160217905550610b7f806100616000396000f300608060405260043610610057576000357c0100000000000000000000000000000000000000000000000000000000900463ffffffff168063096cb7e71461005c5780632b20e397146101a15780633134f7c9146101f8575b600080fd5b34801561006857600080fd5b5061019f600480360381019080803590602001908201803590602001908080601f0160208091040260200160405190810160405280939291908181526020018383808284378201915050505050509192919290803590602001908201803590602001908080601f0160208091040260200160405190810160405280939291908181526020018383808284378201915050505050509192919290803590602001908201803590602001908080601f0160208091040260200160405190810160405280939291908181526020018383808284378201915050505050509192919290803590602001908201803590602001908080601f01602080910402602001604051908101604052809392919081815260200183838082843782019150505050505091929192908035906020019092919050505061023b565b005b3480156101ad57600080fd5b506101b66102e1565b604051808273ffffffffffffffffffffffffffffffffffffffff1673ffffffffffffffffffffffffffffffffffffffff16815260200191505060405180910390f35b34801561020457600080fd5b50610239600480360381019080803573ffffffffffffffffffffffffffffffffffffffff169060200190929190505050610307565b005b8460009080519060200190610251929190610a2e565b506080604051908101604052808581526020018481526020018381526020018281525060016000820151816000019080519060200190610292929190610aae565b5060208201518160010190805190602001906102af929190610aae565b5060408201518160020190805190602001906102cc929190610aae565b50606082015181600301559050505050505050565b600560009054906101000a900473ffffffffffffffffffffffffffffffffffffffff1681565b600560009054906101000a900473ffffffffffffffffffffffffffffffffffffffff1673ffffffffffffffffffffffffffffffffffffffff163373ffffffffffffffffffffffffffffffffffffffff161415156103f2576040517f08c379a00000000000000000000000000000000000000000000000000000000081526004018080602001828103825260248152602001807f4f6e6c79207265676973747261722063616e207265676973746572207665686981526020017f636c65730000000000000000000000000000000000000000000000000000000081525060400191505060405180910390fd5b600660008273ffffffffffffffffffffffffffffffffffffffff1673ffffffffffffffffffffffffffffffffffffffff168152602001908152602001600020604080519081016040528060008054600181600116156101000203166002900480601f0160208091040260200160405190810160405280929190818152602001828054600181600116156101000203166002900480156104d25780601f106104a7576101008083540402835291602001916104d2565b820191906000526020600020905b8154815290600101906020018083116104b557829003601f168201915b50505050508152602001600160806040519081016040529081600082018054600181600116156101000203166002900480601f0160208091040260200160405190810160405280929190818152602001828054600181600116156101000203166002900480156105835780601f1061055857610100808354040283529160200191610583565b820191906000526020600020905b81548152906001019060200180831161056657829003601f168201915b50505050508152602001600182018054600181600116156101000203166002900480601f0160208091040260200160405190810160405280929190818152602001828054600181600116156101000203166002900480156106255780601f106105fa57610100808354040283529160200191610625565b820191906000526020600020905b81548152906001019060200180831161060857829003601f168201915b50505050508152602001600282018054600181600116156101000203166002900480601f0160208091040260200160405190810160405280929190818152602001828054600181600116156101000203166002900480156106c75780601f1061069c576101008083540402835291602001916106c7565b820191906000526020600020905b8154815290600101906020018083116106aa57829003601f168201915b50505050508152602001600382015481525050815250908060018154018082558091505090600182039060005260206000209060050201600090919290919091506000820151816000019080519060200190610724929190610aae565b50602082015181600101600082015181600001908051906020019061074a929190610aae565b506020820151816001019080519060200190610767929190610aae565b506040820151816002019080519060200190610784929190610aae565b506060820151816003015550505050507f928ac61ca1afbf5b7ac07d35f3f013538e5a70f17649f1d6038b4d09f54e188c8160006001600001600180016001600201604051808673ffffffffffffffffffffffffffffffffffffffff1673ffffffffffffffffffffffffffffffffffffffff1681526020018060200180602001806020018060200185810385528981815460018160011615610100020316600290048152602001915080546001816001161561010002031660029004801561088d5780601f106108625761010080835404028352916020019161088d565b820191906000526020600020905b81548152906001019060200180831161087057829003601f168201915b50508581038452888181546001816001161561010002031660029004815260200191508054600181600116156101000203166002900480156109105780601f106108e557610100808354040283529160200191610910565b820191906000526020600020905b8154815290600101906020018083116108f357829003601f168201915b50508581038352878181546001816001161561010002031660029004815260200191508054600181600116156101000203166002900480156109935780601f1061096857610100808354040283529160200191610993565b820191906000526020600020905b81548152906001019060200180831161097657829003601f168201915b5050858103825286818154600181600116156101000203166002900481526020019150805460018160011615610100020316600290048015610a165780601f106109eb57610100808354040283529160200191610a16565b820191906000526020600020905b8154815290600101906020018083116109f957829003601f168201915b5050995050505050505050505060405180910390a150565b828054600181600116156101000203166002900490600052602060002090601f016020900481019282601f10610a6f57805160ff1916838001178555610a9d565b82800160010185558215610a9d579182015b82811115610a9c578251825591602001919060010190610a81565b5b509050610aaa9190610b2e565b5090565b828054600181600116156101000203166002900490600052602060002090601f016020900481019282601f10610aef57805160ff1916838001178555610b1d565b82800160010185558215610b1d579182015b82811115610b1c578251825591602001919060010190610b01565b5b509050610b2a9190610b2e565b5090565b610b5091905b80821115610b4c576000816000905550600101610b34565b5090565b905600a165627a7a723058209209d75668f57f05be219835024e502384dd06cb852fba6101b94c34ef0260a70029",
  "source": "pragma solidity ^0.4.22;\n\n/// @title API-controlled contract to register a car\ncontract CarRegistration {\n\n  struct Car {\n    string plate;\n    CarDescription description;\n  }\n\n  struct CarDescription {\n    string brand;\n    string model;\n    string ownerCredentials;\n    uint horsePower;\n  }\n\n  string private _requestedPlate;\n  CarDescription private _requestedDescription;\n\n  event CarRegistered(address owner, string plate, string brand, string model, string ownerCredentials);\n\n  // address of the person that allows registration\n  address public registrar;\n\n  // all registered cars of a person\n  mapping(address=>Car[]) private _registeredCars;\n\n  constructor() public {\n    registrar = msg.sender;\n  }\n\n  function registerCar(address owner) public {\n    require(msg.sender == registrar, \"Only registrar can register vehicles\");\n    _registeredCars[owner].push(Car({\n      plate: _requestedPlate,\n      description: _requestedDescription\n    }));\n    emit CarRegistered(\n      owner, \n      _requestedPlate, \n      _requestedDescription.brand, \n      _requestedDescription.model, \n      _requestedDescription.ownerCredentials\n    );\n  }\n\n  function requestRegistration(\n    string plate, \n    string brand, \n    string model, \n    string ownerCredentials, \n    uint horsePower) public\n    {\n    _requestedPlate = plate;\n    _requestedDescription = CarDescription({\n      brand: brand,\n      model: model,\n      ownerCredentials: ownerCredentials,\n      horsePower: horsePower\n    });\n  }\n}",
  "sourcePath": "/home/miron/testJob/ethereum/contracts/CarRegistration.sol",
  "compiler": {
    "name": "solc",
    "version": "0.4.24+commit.e67f0147.Emscripten.clang"
  },
  "schemaVersion": "2.0.1",
  "updatedAt": "2018-10-29T18:54:24.937Z"
}