{
  "contractName": "CarRegistration",
  "abi": [
    {
      "constant": true,
      "inputs": [],
      "name": "registrar",
      "outputs": [
        {
          "name": "",
          "type": "address"
        }
      ],
      "payable": false,
      "stateMutability": "view",
      "type": "function"
    },
    {
      "constant": true,
      "inputs": [
        {
          "name": "",
          "type": "address"
        },
        {
          "name": "",
          "type": "uint256"
        }
      ],
      "name": "registeredCars",
      "outputs": [
        {
          "name": "plate",
          "type": "string"
        },
        {
          "components": [
            {
              "name": "brand",
              "type": "string"
            },
            {
              "name": "model",
              "type": "string"
            },
            {
              "name": "ownerCredentials",
              "type": "string"
            },
            {
              "name": "horsePower",
              "type": "uint256"
            }
          ],
          "name": "description",
          "type": "tuple"
        }
      ],
      "payable": false,
      "stateMutability": "view",
      "type": "function"
    },
    {
      "inputs": [],
      "payable": false,
      "stateMutability": "nonpayable",
      "type": "constructor"
    },
    {
      "anonymous": false,
      "inputs": [
        {
          "indexed": false,
          "name": "owner",
          "type": "address"
        },
        {
          "indexed": false,
          "name": "plate",
          "type": "string"
        },
        {
          "indexed": false,
          "name": "brand",
          "type": "string"
        },
        {
          "indexed": false,
          "name": "model",
          "type": "string"
        },
        {
          "indexed": false,
          "name": "ownerCredentials",
          "type": "string"
        }
      ],
      "name": "CarRegistered",
      "type": "event"
    },
    {
      "constant": false,
      "inputs": [
        {
          "name": "owner",
          "type": "address"
        }
      ],
      "name": "registerCar",
      "outputs": [],
      "payable": false,
      "stateMutability": "nonpayable",
      "type": "function"
    },
    {
      "constant": false,
      "inputs": [
        {
          "name": "plate",
          "type": "string"
        },
        {
          "name": "brand",
          "type": "string"
        },
        {
          "name": "model",
          "type": "string"
        },
        {
          "name": "ownerCredentials",
          "type": "string"
        },
        {
          "name": "horsePower",
          "type": "uint256"
        }
      ],
      "name": "requestRegistration",
      "outputs": [],
      "payable": false,
      "stateMutability": "nonpayable",
      "type": "function"
    }
  ],
  "bytecode": "0x608060405234801561001057600080fd5b5033600560006101000a81548173ffffffffffffffffffffffffffffffffffffffff021916908373ffffffffffffffffffffffffffffffffffffffff160217905550610f2a806100616000396000f300608060405260043610610062576000357c0100000000000000000000000000000000000000000000000000000000900463ffffffff168063096cb7e7146100675780632b20e397146101ac5780633134f7c91461020357806371be1c4914610246575b600080fd5b34801561007357600080fd5b506101aa600480360381019080803590602001908201803590602001908080601f0160208091040260200160405190810160405280939291908181526020018383808284378201915050505050509192919290803590602001908201803590602001908080601f0160208091040260200160405190810160405280939291908181526020018383808284378201915050505050509192919290803590602001908201803590602001908080601f0160208091040260200160405190810160405280939291908181526020018383808284378201915050505050509192919290803590602001908201803590602001908080601f016020809104026020016040519081016040528093929190818152602001838380828437820191505050505050919291929080359060200190929190505050610313565b005b3480156101b857600080fd5b506101c16103b9565b604051808273ffffffffffffffffffffffffffffffffffffffff1673ffffffffffffffffffffffffffffffffffffffff16815260200191505060405180910390f35b34801561020f57600080fd5b50610244600480360381019080803573ffffffffffffffffffffffffffffffffffffffff1690602001909291905050506103df565b005b34801561025257600080fd5b50610291600480360381019080803573ffffffffffffffffffffffffffffffffffffffff16906020019092919080359060200190929190505050610b06565b6040518080602001838152602001828103825284818151815260200191508051906020019080838360005b838110156102d75780820151818401526020810190506102bc565b50505050905090810190601f1680156103045780820380516001836020036101000a031916815260200191505b50935050505060405180910390f35b8460009080519060200190610329929190610dd9565b50608060405190810160405280858152602001848152602001838152602001828152506001600082015181600001908051906020019061036a929190610e59565b506020820151816001019080519060200190610387929190610e59565b5060408201518160020190805190602001906103a4929190610e59565b50606082015181600301559050505050505050565b600560009054906101000a900473ffffffffffffffffffffffffffffffffffffffff1681565b600560009054906101000a900473ffffffffffffffffffffffffffffffffffffffff1673ffffffffffffffffffffffffffffffffffffffff163373ffffffffffffffffffffffffffffffffffffffff161415156104ca576040517f08c379a00000000000000000000000000000000000000000000000000000000081526004018080602001828103825260248152602001807f4f6e6c79207265676973747261722063616e207265676973746572207665686981526020017f636c65730000000000000000000000000000000000000000000000000000000081525060400191505060405180910390fd5b600660008273ffffffffffffffffffffffffffffffffffffffff1673ffffffffffffffffffffffffffffffffffffffff168152602001908152602001600020604080519081016040528060008054600181600116156101000203166002900480601f0160208091040260200160405190810160405280929190818152602001828054600181600116156101000203166002900480156105aa5780601f1061057f576101008083540402835291602001916105aa565b820191906000526020600020905b81548152906001019060200180831161058d57829003601f168201915b50505050508152602001600160806040519081016040529081600082018054600181600116156101000203166002900480601f01602080910402602001604051908101604052809291908181526020018280546001816001161561010002031660029004801561065b5780601f106106305761010080835404028352916020019161065b565b820191906000526020600020905b81548152906001019060200180831161063e57829003601f168201915b50505050508152602001600182018054600181600116156101000203166002900480601f0160208091040260200160405190810160405280929190818152602001828054600181600116156101000203166002900480156106fd5780601f106106d2576101008083540402835291602001916106fd565b820191906000526020600020905b8154815290600101906020018083116106e057829003601f168201915b50505050508152602001600282018054600181600116156101000203166002900480601f01602080910402602001604051908101604052809291908181526020018280546001816001161561010002031660029004801561079f5780601f106107745761010080835404028352916020019161079f565b820191906000526020600020905b81548152906001019060200180831161078257829003601f168201915b505050505081526020016003820154815250508152509080600181540180825580915050906001820390600052602060002090600502016000909192909190915060008201518160000190805190602001906107fc929190610e59565b506020820151816001016000820151816000019080519060200190610822929190610e59565b50602082015181600101908051906020019061083f929190610e59565b50604082015181600201908051906020019061085c929190610e59565b506060820151816003015550505050507f928ac61ca1afbf5b7ac07d35f3f013538e5a70f17649f1d6038b4d09f54e188c8160006001600001600180016001600201604051808673ffffffffffffffffffffffffffffffffffffffff1673ffffffffffffffffffffffffffffffffffffffff168152602001806020018060200180602001806020018581038552898181546001816001161561010002031660029004815260200191508054600181600116156101000203166002900480156109655780601f1061093a57610100808354040283529160200191610965565b820191906000526020600020905b81548152906001019060200180831161094857829003601f168201915b50508581038452888181546001816001161561010002031660029004815260200191508054600181600116156101000203166002900480156109e85780601f106109bd576101008083540402835291602001916109e8565b820191906000526020600020905b8154815290600101906020018083116109cb57829003601f168201915b5050858103835287818154600181600116156101000203166002900481526020019150805460018160011615610100020316600290048015610a6b5780601f10610a4057610100808354040283529160200191610a6b565b820191906000526020600020905b815481529060010190602001808311610a4e57829003601f168201915b5050858103825286818154600181600116156101000203166002900481526020019150805460018160011615610100020316600290048015610aee5780601f10610ac357610100808354040283529160200191610aee565b820191906000526020600020905b815481529060010190602001808311610ad157829003601f168201915b5050995050505050505050505060405180910390a150565b600660205281600052604060002081815481101515610b2157fe5b906000526020600020906005020160009150915050806000018054600181600116156101000203166002900480601f016020809104026020016040519081016040528092919081815260200182805460018160011615610100020316600290048015610bce5780601f10610ba357610100808354040283529160200191610bce565b820191906000526020600020905b815481529060010190602001808311610bb157829003601f168201915b5050505050908060010160806040519081016040529081600082018054600181600116156101000203166002900480601f016020809104026020016040519081016040528092919081815260200182805460018160011615610100020316600290048015610c7d5780601f10610c5257610100808354040283529160200191610c7d565b820191906000526020600020905b815481529060010190602001808311610c6057829003601f168201915b50505050508152602001600182018054600181600116156101000203166002900480601f016020809104026020016040519081016040528092919081815260200182805460018160011615610100020316600290048015610d1f5780601f10610cf457610100808354040283529160200191610d1f565b820191906000526020600020905b815481529060010190602001808311610d0257829003601f168201915b50505050508152602001600282018054600181600116156101000203166002900480601f016020809104026020016040519081016040528092919081815260200182805460018160011615610100020316600290048015610dc15780601f10610d9657610100808354040283529160200191610dc1565b820191906000526020600020905b815481529060010190602001808311610da457829003601f168201915b50505050508152602001600382015481525050905082565b828054600181600116156101000203166002900490600052602060002090601f016020900481019282601f10610e1a57805160ff1916838001178555610e48565b82800160010185558215610e48579182015b82811115610e47578251825591602001919060010190610e2c565b5b509050610e559190610ed9565b5090565b828054600181600116156101000203166002900490600052602060002090601f016020900481019282601f10610e9a57805160ff1916838001178555610ec8565b82800160010185558215610ec8579182015b82811115610ec7578251825591602001919060010190610eac565b5b509050610ed59190610ed9565b5090565b610efb91905b80821115610ef7576000816000905550600101610edf565b5090565b905600a165627a7a7230582088a215a2e57581e58d7c8cc6bac80d9ca2afe5fa1d7b2f10fcd26f9bfb07fc770029",
  "source": "pragma solidity ^0.4.22;\n\n/// @title API-controlled contract to register a car\ncontract CarRegistration {\n\n  struct Car {\n    string plate;\n    CarDescription description;\n  }\n\n  struct CarDescription {\n    string brand;\n    string model;\n    string ownerCredentials;\n    uint horsePower;\n  }\n\n  string private _requestedPlate;\n  CarDescription private _requestedDescription;\n\n  event CarRegistered(address owner, string plate, string brand, string model, string ownerCredentials);\n\n  // address of the person that allows registration\n  address public registrar;\n\n  // all registered cars of a person\n  mapping(address=>Car[]) public registeredCars;\n\n  constructor() public {\n    registrar = msg.sender;\n  }\n\n  function registerCar(address owner) public {\n    require(msg.sender == registrar, \"Only registrar can register vehicles\");\n    registeredCars[owner].push(Car({\n      plate: _requestedPlate,\n      description: _requestedDescription\n    }));\n    emit CarRegistered(\n      owner, \n      _requestedPlate, \n      _requestedDescription.brand, \n      _requestedDescription.model, \n      _requestedDescription.ownerCredentials\n    );\n  }\n\n  function requestRegistration(\n    string plate, \n    string brand, \n    string model, \n    string ownerCredentials, \n    uint horsePower) public\n    {\n    _requestedPlate = plate;\n    _requestedDescription = CarDescription({\n      brand: brand,\n      model: model,\n      ownerCredentials: ownerCredentials,\n      horsePower: horsePower\n    });\n  }\n}",
  "sourcePath": "/home/miron/testJob/ethereum/contracts/CarRegistration.sol",
  "compiler": {
    "name": "solc",
    "version": "0.4.24+commit.e67f0147.Emscripten.clang"
  },
  "schemaVersion": "2.0.1",
  "updatedAt": "2018-10-30T10:00:32.518Z"
}