{
  "contractName": "CarRegistration",
  "abi": [
    {
      "constant": true,
      "inputs": [],
      "name": "registrar",
      "outputs": [
        {
          "name": "",
          "type": "address"
        }
      ],
      "payable": false,
      "stateMutability": "view",
      "type": "function"
    },
    {
      "inputs": [],
      "payable": false,
      "stateMutability": "nonpayable",
      "type": "constructor"
    },
    {
      "anonymous": false,
      "inputs": [
        {
          "indexed": false,
          "name": "owner",
          "type": "address"
        },
        {
          "indexed": false,
          "name": "plate",
          "type": "string"
        },
        {
          "indexed": false,
          "name": "brand",
          "type": "string"
        },
        {
          "indexed": false,
          "name": "model",
          "type": "string"
        },
        {
          "indexed": false,
          "name": "ownerCredentials",
          "type": "string"
        },
        {
          "indexed": false,
          "name": "ownerAddress",
          "type": "string"
        },
        {
          "indexed": false,
          "name": "horsePower",
          "type": "uint256"
        }
      ],
      "name": "CarRegistered",
      "type": "event"
    },
    {
      "constant": false,
      "inputs": [
        {
          "name": "owner",
          "type": "address"
        }
      ],
      "name": "registerCar",
      "outputs": [],
      "payable": false,
      "stateMutability": "nonpayable",
      "type": "function"
    },
    {
      "constant": false,
      "inputs": [
        {
          "name": "plate",
          "type": "string"
        },
        {
          "name": "brand",
          "type": "string"
        },
        {
          "name": "model",
          "type": "string"
        },
        {
          "name": "ownerCredentials",
          "type": "string"
        },
        {
          "name": "ownerAddress",
          "type": "string"
        },
        {
          "name": "horsePower",
          "type": "uint256"
        }
      ],
      "name": "requestRegistration",
      "outputs": [],
      "payable": false,
      "stateMutability": "nonpayable",
      "type": "function"
    },
    {
      "constant": true,
      "inputs": [
        {
          "name": "owner",
          "type": "address"
        },
        {
          "name": "index",
          "type": "uint256"
        }
      ],
      "name": "getCarByIndex",
      "outputs": [
        {
          "name": "plate",
          "type": "string"
        },
        {
          "name": "brand",
          "type": "string"
        },
        {
          "name": "model",
          "type": "string"
        },
        {
          "name": "ownerCredentials",
          "type": "string"
        },
        {
          "name": "ownerAddress",
          "type": "string"
        },
        {
          "name": "horsePower",
          "type": "uint256"
        }
      ],
      "payable": false,
      "stateMutability": "view",
      "type": "function"
    }
  ],
  "bytecode": "0x608060405234801561001057600080fd5b5033600660006101000a81548173ffffffffffffffffffffffffffffffffffffffff021916908373ffffffffffffffffffffffffffffffffffffffff160217905550611526806100616000396000f300608060405260043610610062576000357c0100000000000000000000000000000000000000000000000000000000900463ffffffff1680632b20e3971461006757806330e903ed146100be5780633134f7c91461024957806358062e201461028c575b600080fd5b34801561007357600080fd5b5061007c610509565b604051808273ffffffffffffffffffffffffffffffffffffffff1673ffffffffffffffffffffffffffffffffffffffff16815260200191505060405180910390f35b3480156100ca57600080fd5b50610247600480360381019080803590602001908201803590602001908080601f0160208091040260200160405190810160405280939291908181526020018383808284378201915050505050509192919290803590602001908201803590602001908080601f0160208091040260200160405190810160405280939291908181526020018383808284378201915050505050509192919290803590602001908201803590602001908080601f0160208091040260200160405190810160405280939291908181526020018383808284378201915050505050509192919290803590602001908201803590602001908080601f0160208091040260200160405190810160405280939291908181526020018383808284378201915050505050509192919290803590602001908201803590602001908080601f01602080910402602001604051908101604052809392919081815260200183838082843782019150505050505091929192908035906020019092919050505061052f565b005b34801561025557600080fd5b5061028a600480360381019080803573ffffffffffffffffffffffffffffffffffffffff1690602001909291905050506105f9565b005b34801561029857600080fd5b506102d7600480360381019080803573ffffffffffffffffffffffffffffffffffffffff16906020019092919080359060200190929190505050610e7a565b60405180806020018060200180602001806020018060200187815260200186810386528c818151815260200191508051906020019080838360005b8381101561032d578082015181840152602081019050610312565b50505050905090810190601f16801561035a5780820380516001836020036101000a031916815260200191505b5086810385528b818151815260200191508051906020019080838360005b83811015610393578082015181840152602081019050610378565b50505050905090810190601f1680156103c05780820380516001836020036101000a031916815260200191505b5086810384528a818151815260200191508051906020019080838360005b838110156103f95780820151818401526020810190506103de565b50505050905090810190601f1680156104265780820380516001836020036101000a031916815260200191505b50868103835289818151815260200191508051906020019080838360005b8381101561045f578082015181840152602081019050610444565b50505050905090810190601f16801561048c5780820380516001836020036101000a031916815260200191505b50868103825288818151815260200191508051906020019080838360005b838110156104c55780820151818401526020810190506104aa565b50505050905090810190601f1680156104f25780820380516001836020036101000a031916815260200191505b509b50505050505050505050505060405180910390f35b600660009054906101000a900473ffffffffffffffffffffffffffffffffffffffff1681565b85600090805190602001906105459291906113d5565b5060a060405190810160405280868152602001858152602001848152602001838152602001828152506001600082015181600001908051906020019061058c929190611455565b5060208201518160010190805190602001906105a9929190611455565b5060408201518160020190805190602001906105c6929190611455565b5060608201518160030190805190602001906105e3929190611455565b5060808201518160040155905050505050505050565b600660009054906101000a900473ffffffffffffffffffffffffffffffffffffffff1673ffffffffffffffffffffffffffffffffffffffff163373ffffffffffffffffffffffffffffffffffffffff161415156106e4576040517f08c379a00000000000000000000000000000000000000000000000000000000081526004018080602001828103825260248152602001807f4f6e6c79207265676973747261722063616e207265676973746572207665686981526020017f636c65730000000000000000000000000000000000000000000000000000000081525060400191505060405180910390fd5b600760008273ffffffffffffffffffffffffffffffffffffffff1673ffffffffffffffffffffffffffffffffffffffff168152602001908152602001600020604080519081016040528060008054600181600116156101000203166002900480601f0160208091040260200160405190810160405280929190818152602001828054600181600116156101000203166002900480156107c45780601f10610799576101008083540402835291602001916107c4565b820191906000526020600020905b8154815290600101906020018083116107a757829003601f168201915b50505050508152602001600160a06040519081016040529081600082018054600181600116156101000203166002900480601f0160208091040260200160405190810160405280929190818152602001828054600181600116156101000203166002900480156108755780601f1061084a57610100808354040283529160200191610875565b820191906000526020600020905b81548152906001019060200180831161085857829003601f168201915b50505050508152602001600182018054600181600116156101000203166002900480601f0160208091040260200160405190810160405280929190818152602001828054600181600116156101000203166002900480156109175780601f106108ec57610100808354040283529160200191610917565b820191906000526020600020905b8154815290600101906020018083116108fa57829003601f168201915b50505050508152602001600282018054600181600116156101000203166002900480601f0160208091040260200160405190810160405280929190818152602001828054600181600116156101000203166002900480156109b95780601f1061098e576101008083540402835291602001916109b9565b820191906000526020600020905b81548152906001019060200180831161099c57829003601f168201915b50505050508152602001600382018054600181600116156101000203166002900480601f016020809104026020016040519081016040528092919081815260200182805460018160011615610100020316600290048015610a5b5780601f10610a3057610100808354040283529160200191610a5b565b820191906000526020600020905b815481529060010190602001808311610a3e57829003601f168201915b50505050508152602001600482015481525050815250908060018154018082558091505090600182039060005260206000209060060201600090919290919091506000820151816000019080519060200190610ab8929190611455565b506020820151816001016000820151816000019080519060200190610ade929190611455565b506020820151816001019080519060200190610afb929190611455565b506040820151816002019080519060200190610b18929190611455565b506060820151816003019080519060200190610b35929190611455565b506080820151816004015550505050507fa64e67aa9cba1e57927aaa0017ced4a2d77f31ef5383d7019546f0a619dce48f81600060016000016001800160016002016001600301600160040154604051808873ffffffffffffffffffffffffffffffffffffffff1673ffffffffffffffffffffffffffffffffffffffff168152602001806020018060200180602001806020018060200187815260200186810386528c818154600181600116156101000203166002900481526020019150805460018160011615610100020316600290048015610c535780601f10610c2857610100808354040283529160200191610c53565b820191906000526020600020905b815481529060010190602001808311610c3657829003601f168201915b505086810385528b818154600181600116156101000203166002900481526020019150805460018160011615610100020316600290048015610cd65780601f10610cab57610100808354040283529160200191610cd6565b820191906000526020600020905b815481529060010190602001808311610cb957829003601f168201915b505086810384528a818154600181600116156101000203166002900481526020019150805460018160011615610100020316600290048015610d595780601f10610d2e57610100808354040283529160200191610d59565b820191906000526020600020905b815481529060010190602001808311610d3c57829003601f168201915b5050868103835289818154600181600116156101000203166002900481526020019150805460018160011615610100020316600290048015610ddc5780601f10610db157610100808354040283529160200191610ddc565b820191906000526020600020905b815481529060010190602001808311610dbf57829003601f168201915b5050868103825288818154600181600116156101000203166002900481526020019150805460018160011615610100020316600290048015610e5f5780601f10610e3457610100808354040283529160200191610e5f565b820191906000526020600020905b815481529060010190602001808311610e4257829003601f168201915b50509c5050505050505050505050505060405180910390a150565b60608060608060606000600760008973ffffffffffffffffffffffffffffffffffffffff1673ffffffffffffffffffffffffffffffffffffffff16815260200190815260200160002087815481101515610ed057fe5b90600052602060002090600602016000018054600181600116156101000203166002900480601f016020809104026020016040519081016040528092919081815260200182805460018160011615610100020316600290048015610f755780601f10610f4a57610100808354040283529160200191610f75565b820191906000526020600020905b815481529060010190602001808311610f5857829003601f168201915b50505050509550600760008973ffffffffffffffffffffffffffffffffffffffff1673ffffffffffffffffffffffffffffffffffffffff16815260200190815260200160002087815481101515610fc857fe5b90600052602060002090600602016001016000018054600181600116156101000203166002900480601f0160208091040260200160405190810160405280929190818152602001828054600181600116156101000203166002900480156110705780601f1061104557610100808354040283529160200191611070565b820191906000526020600020905b81548152906001019060200180831161105357829003601f168201915b50505050509450600760008973ffffffffffffffffffffffffffffffffffffffff1673ffffffffffffffffffffffffffffffffffffffff168152602001908152602001600020878154811015156110c357fe5b90600052602060002090600602016001016001018054600181600116156101000203166002900480601f01602080910402602001604051908101604052809291908181526020018280546001816001161561010002031660029004801561116b5780601f106111405761010080835404028352916020019161116b565b820191906000526020600020905b81548152906001019060200180831161114e57829003601f168201915b50505050509350600760008973ffffffffffffffffffffffffffffffffffffffff1673ffffffffffffffffffffffffffffffffffffffff168152602001908152602001600020878154811015156111be57fe5b90600052602060002090600602016001016002018054600181600116156101000203166002900480601f0160208091040260200160405190810160405280929190818152602001828054600181600116156101000203166002900480156112665780601f1061123b57610100808354040283529160200191611266565b820191906000526020600020905b81548152906001019060200180831161124957829003601f168201915b50505050509250600760008973ffffffffffffffffffffffffffffffffffffffff1673ffffffffffffffffffffffffffffffffffffffff168152602001908152602001600020878154811015156112b957fe5b90600052602060002090600602016001016003018054600181600116156101000203166002900480601f0160208091040260200160405190810160405280929190818152602001828054600181600116156101000203166002900480156113615780601f1061133657610100808354040283529160200191611361565b820191906000526020600020905b81548152906001019060200180831161134457829003601f168201915b50505050509150600760008973ffffffffffffffffffffffffffffffffffffffff1673ffffffffffffffffffffffffffffffffffffffff168152602001908152602001600020878154811015156113b457fe5b90600052602060002090600602016001016004015490509295509295509295565b828054600181600116156101000203166002900490600052602060002090601f016020900481019282601f1061141657805160ff1916838001178555611444565b82800160010185558215611444579182015b82811115611443578251825591602001919060010190611428565b5b50905061145191906114d5565b5090565b828054600181600116156101000203166002900490600052602060002090601f016020900481019282601f1061149657805160ff19168380011785556114c4565b828001600101855582156114c4579182015b828111156114c35782518255916020019190600101906114a8565b5b5090506114d191906114d5565b5090565b6114f791905b808211156114f35760008160009055506001016114db565b5090565b905600a165627a7a72305820b1e2c793663231632713c588d29437431d9a8e19a056ef75768f1bb01ba6cb520029",
  "source": "pragma solidity ^0.4.22;\n\n/// @title API-controlled contract to register a car\ncontract CarRegistration {\n\n  struct Car {\n    string plate;\n    CarDescription description;\n  }\n\n  struct CarDescription {\n    string brand;\n    string model;\n    string ownerCredentials;\n    string ownerAddress;\n    uint horsePower;\n  }\n\n  string private _requestedPlate;\n  CarDescription private _requestedDescription;\n\n  event CarRegistered(\n    address owner,\n    string plate,\n    string brand,\n    string model,\n    string ownerCredentials,\n    string ownerAddress,\n    uint horsePower\n  );\n\n  // address of the person that allows registration\n  address public registrar;\n\n  // all registered cars of a person\n  mapping(address=>Car[]) private _registeredCars;\n\n  constructor() public {\n    registrar = msg.sender;\n  }\n\n  function registerCar(address owner) public {\n    require(msg.sender == registrar, \"Only registrar can register vehicles\");\n    _registeredCars[owner].push(Car({\n      plate: _requestedPlate,\n      description: _requestedDescription\n    }));\n    emit CarRegistered(\n      owner, \n      _requestedPlate, \n      _requestedDescription.brand, \n      _requestedDescription.model, \n      _requestedDescription.ownerCredentials,\n      _requestedDescription.ownerAddress,\n      _requestedDescription.horsePower\n    );\n  }\n\n  function requestRegistration(\n    string plate, \n    string brand, \n    string model, \n    string ownerCredentials,\n    string ownerAddress,\n    uint horsePower) public\n    {\n    _requestedPlate = plate;\n    _requestedDescription = CarDescription({\n      brand: brand,\n      model: model,\n      ownerCredentials: ownerCredentials,\n      ownerAddress: ownerAddress,\n      horsePower: horsePower\n    });\n  }\n\n  function getCarByIndex(address owner, uint index) view public returns (\n    string plate,\n    string brand,\n    string model,\n    string ownerCredentials,\n    string ownerAddress,\n    uint horsePower\n  ) {\n    plate = _registeredCars[owner][index].plate;\n    brand = _registeredCars[owner][index].description.brand;\n    model = _registeredCars[owner][index].description.model;\n    ownerCredentials = _registeredCars[owner][index].description.ownerCredentials;\n    ownerAddress = _registeredCars[owner][index].description.ownerAddress;\n    horsePower = _registeredCars[owner][index].description.horsePower;\n  }\n}",
  "sourcePath": "/home/miron/testJob/ethereum/contracts/CarRegistration.sol",
  "compiler": {
    "name": "solc",
    "version": "0.4.24+commit.e67f0147.Emscripten.clang"
  },
  "schemaVersion": "2.0.1",
  "updatedAt": "2018-11-10T18:15:57.825Z"
}